:020000040800F2
:100000001807002055020008611C00083D18000870
:100010005D1C00084D040008691E00080000000077
:10002000000000000000000000000000691C000843
:100030005104000800000000651C00086D1C000849
:100040006F0200086F0200086F0200086F020008CC
:100050006F0200086F0200086F0200086F020008BC
:100060006F0200086F0200086F0200086F020008AC
:100070006F0200086F0200086F0200086F0200089C
:100080006F0200086F0200086F0200086F0200088C
:100090006F0200086F0200086F0200086F0200087C
:1000A0006F0200086F0200086F0200086F0200086C
:1000B0006F0200086F0200086F0200086F0200085C
:1000C0006F0200086F0200086F0200086F0200084C
:1000D0006F0200086F0200086F0200086F0200083C
:1000E0006F0200086F0200086F0200086F0200082C
:1000F0006F0200086F0200086F0200086F0200081C
:100100006F0200086F0200086F0200086F0200080B
:100110006F0200086F0200086F0200086F020008FB
:100120006F0200086F0200086F0200086F020008EB
:100130006F0200086F0200086F0200086F020008DB
:100140006F0200086F0200086F0200086F020008CB
:100150006F0200086F0200086F0200086F020008BB
:100160006F0200086F0200086F0200086F020008AB
:100170006F0200086F0200086F0200080000000014
:100180006F0200086F02000800F002F800F052F859
:1001900014A696E8000CB244B344DA4501D100F04D
:1001A00049F8BAE80F000FA696E83000A5EB040561
:1001B00004EB0607AAEB0704A7F101074FEA1515A0
:1001C0004FEA3414A4F10104AC4201D300F032F838
:1001D00013F0010F18BFFB1A43F0010300F001F800
:1001E000DBE7184784220000A4220000103A24BF55
:1001F00078C878C1FAD8520724BF30C830C144BF8C
:1002000004680C6070470000704700000023002461
:1002100000250026103A28BF78C1FBD8520728BF16
:1002200030C148BF0B6070471FB502F003F91FBD16
:1002300010B510BD00F0D0F81146FFF7F5FF01F042
:1002400023FF00F0EEF803B4FFF7F2FF03BC00F069
:10025000F5F800000948804709480047FEE7FEE737
:10026000FEE7FEE7FEE7FEE7FEE7FEE7FEE7FEE766
:1002700004480549054A064B70470000191D00084F
:100280008901000818010020180700201803002029
:100290001803002053EA020C00F069802DE9F04BAE
:1002A0004FF00006002B1FBFB3FA83F503FA05F4E5
:1002B00024FA05F65E4012BF1643B2FA82F502FA3E
:1002C00005F4C5F120051EBF22FA05FC44EA0C0422
:1002D000203556EA044C4FEA144418BF641C4FF012
:1002E00000084FF00009904271EB030C39D300294C
:1002F00019BFB1FA81F701FA07F6B0FA80F700FAF0
:1003000007F6C7F120071EBF20FA07FC46EA0C06D5
:100310002037B6FBF4FCA7EB0507103F07F01F0BD7
:10032000CBF120062CFA06F60CFA0BFB44BFB346C1
:100330000026202FA4BF5E464FF0000B5BEA060CA0
:1003400008BF4FF0010B19EB0B0948EB0608ABFB9C
:10035000027C06FB02CC0BFB03CCC01B71EB0C0137
:10036000C1E70B46024641464846BDE8F08B13B54F
:10037000084318BF4FF0FF300146AFF30080BDE8DF
:100380001C4070474FF0000200B513469446964655
:10039000203922BFA0E80C50A0E80C50B1F1200198
:1003A000BFF4F7AF090728BFA0E80C5048BF0CC046
:1003B0005DF804EB890028BF40F8042B08BF7047A4
:1003C00048BF20F8022B11F0804F18BF00F8012B16
:1003D0007047704770477047754600F02BF8AE467F
:1003E00005006946534620F00700854618B020B541
:1003F000FFF73EFFBDE820404FF000064FF000073A
:100400004FF000084FF0000BAC46ACE8C009ACE878
:10041000C009ACE8C009ACE8C00921F007018D466D
:10042000704710B50446AFF300802046BDE8104089
:10043000FFF709BF0048704710000020014918204D
:10044000ABBEFEE72600020070470000FEE700009A
:1004500070470000B0B5044600F0ECF8054640F2E5
:100460000000C2F200000078611C18BF044400BF05
:1004700000F0E0F8401BA042FAD3B0BD2DE9F04FE8
:1004800083B000F1200200F13E4741F600450092A2
:1004900007F1FF77C4F2020508224FEAB726A84207
:1004A00008BF072200254FF000084FF00009072E73
:1004B00038BF4FEAB72201920AE000BF09F10109F3
:1004C00008F10208B9F1100F05F1040500F0A2804F
:1004D0000F68012202FA09FE17EA0E0AEED0D1F8DF
:1004E00004C003220CF003077E1E02FA08F4012E5A
:1004F0006FEA040B12D88468CE6804EA0B0406FA8B
:1005000008F634438460446824EA0E06CCF30014F1
:1005100004FA09F42643466004E000BF032F01D12A
:1005200003271EE0C6688C6806EA0B0604FA08F486
:100530002643022FC66014D16FF00302009E02EA28
:10054000590756F807C005F01C040F220B69A2409A
:100550002CEA0202A3401A43F251D1F804C00CF075
:100560000307026807FA08F302EA0B021A431CF4B5
:10057000403F0260A2D0002243F644030292C4F23C
:1005800002031A6843F6004442F480421A601A6873
:10059000C4F2010402F480420292029A29F003029A
:1005A0004FF6084C2244CFF6FF7C52F80C3005F091
:1005B0000C070F26BE40B343019E06FA07F73B43E4
:1005C00042F80C30A2684B6842EA0A0743F60C4C2A
:1005D000DE0258BF22EA0A07A760C4F2010CDCF869
:1005E00000209E0242EA0A0758BF22EA0A07CCF816
:1005F000007062689E0342EA0A0758BF22EA0A07AF
:1006000067602268DB0342EA0A0758BF22EA0A074A
:10061000276053E703B0BDE8F08F00000069084091
:1006200018BF012070470000002A08BF090481613B
:100630007047000040F21410C2F2000000687047DA
:10064000002804BF01207047F0B581B0044690F83F
:100650003D0028B9002084F83C00204600F090F9C5
:10066000242084F83D002068016821F00101016028
:10067000016841F400410160016821F4004101601A
:1006800000F012FB636848F2A16CC0F2010C40F666
:100690000011C0F23D0163453CBF48F28041C0F209
:1006A0001E01884202D2012001B0F0BD4DF68361E7
:1006B000C4F21B31A0FB01122168970CD1F804E0B1
:1006C0004FF496762EF03F0545EA92454D6077430C
:1006D00048F638160D6AC0F24106A7FB067625F0EB
:1006E0003F07634538BF960C721C3A430A62CA69D9
:1006F00048F2A0664CF6FF77C0F20106B34222EA48
:1007000007020BD801385B00B0FBF3F001306FF348
:100710001F30042898BF04201BE000BFA7680138E1
:1007200057B119277B43B0FBF3F001306FF31F3053
:1007300070B100F5804007E003EB4303B0FBF3F03A
:1007400001306FF31F3018B100F5004001E000BF29
:1007500001201043C8610868D4E9072320F0C000D5
:10076000104318430860886848F2FF3204F10C0710
:1007700090438CCF18431043A6698860C86820F066
:10078000FF0038433043C860086840F0010008604B
:1007900000202021206484F83D10206384F83E006E
:1007A00001B0F0BD2DE9F04383B01E4617468946DF
:1007B0000446FFF73FFF94F83D10202924D1054659
:1007C000206800BF816989071AD5FFF733FF411BF5
:1007D00020681A29F6D381698907F3D500202021E2
:1007E000206384F83D1084F83E00216C41F0200124
:1007F000216484F83C00022003B0BDE8F08300BF10
:1008000094F83C10012903D1022003B0BDE8F08325
:10081000012184F83C100168C90703D1016841F047
:1008200001010160016840F2020821F400610160E9
:10083000212184F83D10102184F83E10002121640C
:1008400067626685618DC0F201082185A8F10211F9
:10085000E162E16A0A9E11F5803F18BF01291DD1AE
:10086000016841F48071016020464FF001110022BF
:100870003346009501F042F850B120680068C00589
:1008800044BF4FF400702064012003B0BDE8F08342
:100890002069B0F5804F07D1FE2015E00829DFD090
:1008A000216B1229DCD0DFE7062000EAD91021688D
:1008B000F030086108F10601204632462B4601F06F
:1008C00003F90028E0D1FF20216800EA090008614F
:1008D0002046414632462B4601F0F6F80028D3D197
:1008E000002002902068416902918069029002987C
:1008F00006E000BF204631462A4600F0A1FF18BBA3
:10090000208D68B3204631462A4601F049F9D8B90E
:10091000606A2168024612F8013B0B616262628DD7
:10092000013A6285228D531E23854F697F07E1D5E9
:100930001B04DFD0437802300B616062608D0138A8
:100940006085901E2085D5E7206C04289CD1206806
:10095000016841F400710160012003B0BDE8F0833B
:100960002068016841F400710160202084F83D0096
:10097000002084F83E0084F83C0003B0BDE8F0831A
:10098000B0B586B045F200410068C4F20001002411
:1009900088420594CDE903440294019402D006B044
:1009A000B0BD00BF43F630050094C4F202052868CC
:1009B00040F002002860286800F0020000900098D3
:1009C000C02001901220CDE90204032004900420ED
:1009D000059001F5D83001A9FFF750FD0094286972
:1009E00040F400102861286900F40010009000987D
:1009F00006B0B0BD40F2000040F21411C2F2000097
:100A0000C2F2000100780A681044086070470000D4
:100A100080B543F60040C4F20200016841F4007161
:100A20000160016841F480610160016841F48071F6
:100A30000160032000F076F8002000F005F800F0D7
:100A400027F8002080BD000070B540F20006C2F219
:100A5000000640F208013278C2F200014FF47A73C6
:100A60000968B3FBF2F20446B1FBF2F1084600F06C
:100A70003DFB0F2C4FF0010508D838B94FF0FF307F
:100A800021460022002500F021F87460284670BD40
:100A900082B0002043F640010190C4F202014A688E
:100AA00042F480424A604A6802F480420192019A0C
:100AB0000090086840F080500860086800F080509E
:100AC00000900098072002B000F02CB810B54EF648
:100AD0000C5CCEF2000CDCF80030C3F3022E8EF07A
:100AE0000704042C28BF0424BEF103034FF0FF3E8B
:100AF0000EFA04F438BF0023A14399400EFA03F321
:100B00009A43114300F00F0200F160430901043AD7
:100B100003F564436244002848BF02F10C031970D6
:100B200010BD00004EF60C51CEF200010A684FF6DF
:100B3000FF031A4060F30A2242F0806040F0FD702B
:100B400008607047002804BF012070472DE9F0417C
:100B500043F60808C4F202080446D8F8F8030D4624
:100B600000F00700814207D988F8F853D8F8F80355
:100B700000F00700A84277D12068810717D5410708
:100B800005D5D8F8001041F4E051C8F8001001076D
:100B900005D5D8F8001041F46041C8F80010D8F825
:100BA0000010A26821F0F0011143C8F80010C0073E
:100BB00040D1D8F8F80300F00700854207D288F842
:100BC000F853D8F8F80300F00700A8424CD1206889
:100BD000410707D5D8F80010E26821F4E05111432D
:100BE000C8F80010000708D5D8F80000216920F4E3
:100BF000604040EAC100C8F8000000F069F8D8F889
:100C0000001042F24E42C1F30311C0F60002515CE3
:100C100040F2080220FA01F140F20400C2F20000A2
:100C20000068C2F200021160FFF70EFF0020BDE86D
:100C3000F08100BF6068811E022907D258F8081CA5
:100C400089015CBF0120BDE8F08111E0012807D1D6
:100C500058F8081C89035CBF0120BDE8F08107E05B
:100C600058F8081C890703D40120BDE8F08100BFB3
:100C7000D8F8001021F003010843C8F80000FFF77E
:100C8000D9FC064641F28837D8F80000616800F0C8
:100C90000C00B0EB810F8CD0FFF7CCFC801BB8426E
:100CA000F2D90320BDE8F08140F2080043F60801C4
:100CB000C2F20000C4F202010068096842F25E421A
:100CC000C1F38221C0F60002515CC84070470000A9
:100CD00010B543F60404C4F202046168C1F3810153
:100CE00042F20040C0F2F400DFE801F002040A0220
:100CF00010BD00BF41F20020C0F27A0010BD00BF5D
:100D0000216801F03F02216823684902C3F388117A
:100D100006D4A1FB00010023FFF7BCFA07E000BFE7
:100D200041F20020C0F27A004843B0FBF2F02168A3
:100D30000222C1F3014102EB4101B0FBF1F010BD11
:100D4000002804BF012070472DE9F04182B004461D
:100D5000007843F60006C007C4F202060CD0B06863
:100D600000F00C00042840F081803068800303D537
:100D70006068002800F06881207880071BD5B06883
:100D800010F00C0F09D0B06800F00C00082840F0FB
:100D900087807068400200F183803068800703D547
:100DA000E068012840F050813068216920F0F800A7
:100DB00040EAC10030602078000713D42078400753
:100DC0002AD4A569002D00F03A81B06800F00C002B
:100DD000082840F0A580012D40F00E81012002B0CE
:100DE000BDE8F0816069002800F082800020C4F234
:100DF00047200121C0F8801EFFF71CFC054600BFFC
:100E0000706F8007DAD4FFF715FC401B0228F7D972
:100E1000032002B0BDE8F081306C5FEAC0080AD45C
:100E200000200190306C40F080503064306C00F055
:100E300080500190019847F20007C4F2000738681B
:100E4000C00547D4386840F480703860FFF7F2FB83
:100E5000054600BF3868C0053CD4FFF7EBFB401BDC
:100E60000228F7D9032002B0BDE8F081B06800F095
:100E70000C00082803D1706840023FF576AF616826
:100E80003068B1F5803F07D0B1F5A02F40F09A80CF
:100E900040F480203060306840F4803030609AE068
:100EA000E068002840F20000C4F247205CD0012135
:100EB0000160FFF7BFFB0546306880073FF574AF60
:100EC000FFF7B8FB401B0228F6D9032002B0BDE8AB
:100ED000F08100BFA168306F012905D0052955D1E7
:100EE00040F004003067306F40F00100306756E09A
:100EF0000020C4F247200021C0F8801EFFF79AFBB3
:100F0000054600BF706F80077FF558AFFFF792FB73
:100F1000401B0228F6D9032002B0BDE8F08100BFD3
:100F20000027C4F2472700203866FFF783FB022D15
:100F300005460DD13068800140F18A80FFF77AFBC9
:100F4000401B02284FF00300F4D902B0BDE8F08145
:100F50003068800173D5FFF76DFB401B02284FF00E
:100F60000300F5D9F1E700BF00210160FFF762FB44
:100F7000054600BF306880077FF51DAFFFF75AFBBD
:100F8000401B02284FF00300F4D9DEE720F00100F7
:100F90003067306F002920F0040030677AD0FFF707
:100FA00049FB054641F28837306F800700F18480A5
:100FB000FFF740FB401BB842F6D9032002B0BDE862
:100FC000F08100BF20F4803030603068002920F4C8
:100FD000802030607AD0FFF72DFB05463068800313
:100FE0003FF5CAAEFFF726FB401B6428F6D9032065
:100FF00002B0BDE8F08100BF7068E16900F48002D2
:101000008A4221D1216A00F03F028A421CD147F670
:10101000C071626A0140B1EB821F15D1A16A4FF61F
:10102000FF73C903994300F44032A1F580318A422D
:101030000AD1E16A00F07060B0EB016F04D10020CA
:1010400002B0BDE8F08100BF012002B0BDE8F08130
:1010500004F11C052FCD084340EA8210D9034FF656
:10106000FF729143A1F5803140EA0560084370604A
:1010700001203866FFF7DEFA044600BF30688001C1
:10108000DDD4FFF7D7FA001B02284FF00300F5D993
:101090005BE700BFFFF7CEFA054641F2883700BF95
:1010A000306F800708D5FFF7C5FA401BB8424FF0F4
:1010B0000300F5D949E700BFB8F1000F3FF581AE55
:1010C000306C20F0805030647BE600BFFFF7B2FA4E
:1010D000054600BF306880037FF54EAEFFF7AAFAE1
:1010E000401B64284FF00300F4D92EE7411E002076
:1010F000B0EB116F1CBF012070474EF21002CEF210
:10110000000251604EF62351CEF20001F0230B7025
:10111000072190601160704790F83C20012A04BFBD
:1011200002207047B0B501F108053CCDD1E900CEF1
:1011300023F47C5322F470521A432EF4F0431A43E2
:101140002CF4E0431A4324F4C0431A432A43C969E8
:1011500022F48042036811435964002180F83C1056
:101160000020B0BD90F83C20012A4FF0020254D07C
:1011700010B580F83D200268D2F804E0D2F808C02B
:101180000C682EF07003234341F2FF74C4F2000494
:10119000A24253600EDC40F2FF73C4F200039A4295
:1011A00016DCB2F1804F2BD040F20043C4F20003B2
:1011B00024E000BF40F2FF33C4F201039A4213DC83
:1011C00041F60003C4F200039A4219D0002313E051
:1011D00040F60003C4F200039A4211D040F60043E7
:1011E000C4F200030AE000BF44F20003C4F20103AA
:1011F0009A4205D040F20043C4F201039A4204D15E
:1012000049682CF08003194391600121002280F885
:101210003D1080F83C20BDE81040104670470000AB
:10122000002804BF0120704710B5044690F83D0027
:1012300028B9002084F83C00204600F01FF8022066
:1012400084F83D002068211D00F070FD012084F825
:10125000460084F83E0084F83F0084F8400084F89B
:10126000410084F8420084F8430084F8440084F884
:10127000450084F83D00002010BD000000680021FA
:10128000C4F20101884218BF704781B0002000906D
:1012900043F64400C4F20200016841F0010101601C
:1012A000006800F001000090009801B07047000055
:1012B00090F83C20012A4FF002026CD080B580F8F3
:1012C0003D20D0F800C04FF67772DCF8083023EAF2
:1012D0000202CCF808200B684F2B29DC1F2B45DDC0
:1012E000202B46D0302B44D0402B40F0AF80D1F89B
:1012F00004E0C968DCF82030DCF8202022F001028C
:10130000CCF82020DCF8182022F0F00242EA01118B
:1013100023F00A0242EA0E02CCF81810CCF8202082
:10132000DCF8081041F0470121F0300128E000BF4F
:101330006F2B33DDB3F5005F74D0B3F5805F21D040
:10134000702B40F08380D1E901E3C968DCF8082004
:1013500043EA0E0322F47F4243EA01211143CCF811
:101360000810DCF8081041F0770109E00BB1102BF0
:101370006CD1DCF8081021F07001194341F007012D
:10138000CCF808100022012180F83D10002180F8DF
:101390003C10BDE880401046704700BF502B21D064
:1013A000602B53D1D1F804E0C968DCF82030DCF8B8
:1013B000202022F01002CCF82020DCF8182022F4A3
:1013C000704242EA013123F0A00242EA0E12CCF848
:1013D0001810CCF82020DCF8081041F0670121F04B
:1013E0001001CDE7D1F804E0C968DCF82030DCF862
:1013F000202022F00102CCF82020DCF8182022F076
:10140000F00242EA011123F00A0242EA0E02CCF88D
:101410001810CCF82020DCF8081041F0570121F01A
:101420002001ADE7D1E901E3C968DCF8082043EA0F
:101430000E0322F47F4243EA01211143CCF8081045
:10144000DCF8081041F480419AE700BF01229AE7D6
:1014500080B586B000210068C4F2010100228842F4
:101460000592CDE903220292019201D006B080BD1F
:1014700043F630000092C4F20200036843F0100308
:101480000360006800F01000009000984FF40070B6
:1014900001900220CDE902020120059001F588307B
:1014A00001A90492FEF7EAFF06B080BD90F83C3037
:1014B000012B04BF022070474FEAB202032A00F258
:1014C000FF802DE9F043DFE802F003B13F7F00BF6A
:1014D000036840F200461C6A1A6A24F0020422F0F3
:1014E00001021A621A46D3F804C052F818EF8F6846
:1014F00043F48065C4F20106B54244EA070405D10D
:10150000CF6824F00C0427F004073C430F68B54271
:1015100006D1D1E905582CF440762E4346EA080C52
:101520002EF073063743C3F804C09F614F68096902
:101530005F631C629F6947F008079F619F6927F0FE
:1015400004079F61B1E000BF036840F200481C6AD5
:101550001A6A24F4007422F480721A621A46D3F8CC
:1015600004C052F81CEF8F6843F48065C4F2010890
:10157000454544EA072408D1CF6840F2FF463F02C0
:1015800024F4406427EA06063443D1F80090454528
:1015900006D1D1E905562CF440572E4347EA061CE4
:1015A0002EF0730747EA0907C3F804C0DF614F68EC
:1015B0000969DF631C62DF6947F00807DF61DF69E3
:1015C00027F00407DF6170E0036840F20045D3F8BC
:1015D00020C01A6A43F4806722F480521A621A46C5
:1015E0005C6852F81C8FD1F800E08E68C4F20105E7
:1015F000AF4204D14D6924F4804444EA85142CF4AC
:10160000005747EA063728F4E64646EA0E265C60AD
:10161000DE614E6809691E641F62DF6947F4006776
:10162000DF61DF6927F48067DF613DE0036840F236
:1016300000481C6A1A6A24F0200422F010021A6280
:101640001A46D3F804C052F818EF8F6843F4806547
:10165000C4F20108454544EA071407D1CF686FF08A
:10166000400624F0C00406EA07163443D1F800907F
:10167000454506D1D1E905562CF440672E4347EA8B
:10168000860C2EF4E64747EA0927C3F804C09F6199
:101690004F6809699F631C629F6947F400679F61F7
:1016A0009F6927F480679F610902136819431160DD
:1016B0000021BDE8F043002280F83C200846704736
:1016C0000121002280F83C2008467047002804BF12
:1016D0000120704710B5044690F83D0028B900205D
:1016E00084F83C00204600F01FF8022084F83D00FA
:1016F0002068211D00F01AFB012084F8460084F8C0
:101700003E0084F83F0084F8400084F8410084F8EB
:10171000420084F8430084F8440084F8450084F8CB
:101720003D00002010BD000070470000C1B1042939
:1017300008D0082914BF41224022825C012A05D02A
:1017400016E000BF3F22825C012A11D10222082943
:1017500010D0042914BF80F8412080F83F200BE00E
:1017600090F83E20012A03D1022280F83E2003E0B7
:101770000120704780F84020006801F01F0101221D
:10178000036A02FA01F123EA01020262026A1143CA
:1017900041F2FF72C4F20002904201620CDC40F29E
:1017A000FF71C4F20001884214DCB0F1804F37D0E1
:1017B00040F2004116E000BF40F2FF31C4F20101E7
:1017C000884215DC41F60001C4F20001884227D0AE
:1017D000002115E040F60001C4F2000188421FD04C
:1017E00040F60041C4F20001884219D01FE000BF5A
:1017F00044F20001C4F20101884211D040F20041DC
:10180000C4F20101884212D1416C40F2004340F41D
:101810008062C4F2010341F400419A42416406D15E
:10182000816801F00701062904BF002070470168A4
:1018300041F001010160002070470000FEE7000058
:1018400070B50368044653F8140F400711D40E46D0
:10185000481C29D086BB00BF1868400527D4FEF776
:10186000E9FE236853F8140F400737D5186840077E
:10187000F2D5002070BD00BF18684007F9D4186881
:10188000400514D418684007F3D4186840050ED4F6
:1018900018684007EDD41868400508D41868400758
:1018A0004FF0000048BF70BD18684005E4D56FF4E4
:1018B00080601860042012E0154603E053F8140F0E
:1018C0004007D6D418684005F1D4FEF7B3FE401B9C
:1018D0002368B042F2D958694007EFD42020002194
:1018E0002022216384F83D2084F83E10226C1043AE
:1018F0002064012084F83C1070BD00002DE9F04107
:10190000054600681E46144601F47F0201338FB27B
:1019100042D0DDF81880B2F5803F40F08780406902
:101920003840C01BB0FA80F04009844240F0C880C3
:101930004EB924E040693840C01BB0FA80F040093D
:10194000844240F0BD80FEF775FEA0EB08012868D8
:10195000B142EFD941693940C91BB1FA81F1490956
:101960008C42E7D19BE000BF40693840C01BB0FA11
:1019700080F0400984424FF0000040F0A280FEF762
:1019800059FE286841693940C91BB1FA81F14909FA
:101990008C42E9D183E000BFB2F5803F24D100BF83
:1019A00041693940C91BB1FA81F149098C4240F0C3
:1019B000878041693940C91BB1FA81F149098C42DC
:1019C00040F07E8041693940C91BB1FA81F1490973
:1019D0008C4275D141693940C91BB1FA81F149097D
:1019E0008C42DDD06CE000BF81693940C91BB1FA7F
:1019F00081F149098C4263D181693940C91BB1FA2F
:101A000081F149098C425BD181693940C91BB1FA26
:101A100081F149098C4253D181693940C91BB1FA1E
:101A200081F149098C42DFD04AE000BF806938402B
:101A3000C01BB0FA80F04009844241D146B923E08E
:101A400080693840C01BB0FA80F04009844237D129
:101A5000FEF7F0FDA0EB08012868B142F0D98169DA
:101A60003940C91BB1FA81F149098C42E8D116E02D
:101A700080693840C01BB0FA80F0400984424FF0C2
:101A8000000018BFBDE8F081FEF7D4FD2868816929
:101A90003940C91BB1FA81F149098C42E8D10020D3
:101AA0002021286385F83D1085F83E00296C41F01F
:101AB0002001296485F83C000120BDE8F08100BFC9
:101AC0000020BDE8F0810000F0B581B00446006858
:101AD0001D4643698FB203EA0701B94202D10020D3
:101AE00001B0F0BD4169164601323CD0490512D41F
:101AF0007EB300BFFEF79EFD411B2068B14203D9B3
:101B000041693940B9422BD141693940B942E6D0E7
:101B100041694905EED5016841F4007101606FF437
:101B200080614161042000212022216384F83D204E
:101B300084F83E10226C1043206484F83C1001208D
:101B400001B0F0BD41693940B942C8D04169490589
:101B5000E1D4FEF76FFD206841693940B942F1D008
:101B60002020E0E741694905D5D441693940B942AF
:101B7000B5D041694905CED441693940B942AED0AA
:101B800041694905C7D441693940B942A7D0416983
:101B90004905C0D441693940B942E3D19FE700000B
:101BA00070B50368044653F8140F000611D40E46AE
:101BB000481C29D086BB00BF1868400527D4FEF713
:101BC00039FD236853F8140F000637D5186800064E
:101BD000F2D5002070BD00BF18680006F9D418685F
:101BE000400514D418680006F3D4186840050ED4D4
:101BF00018680006EDD41868400508D41868000677
:101C00004FF0000048BF70BD18684005E4D56FF480
:101C100080601860042012E0154603E053F8140FAA
:101C20000006D6D418684005F1D4FEF703FD401B2A
:101C30002368B042F2D958690006EFD42020002171
:101C40002022216384F83D2084F83E10226C10434A
:101C50002064012084F83C1070BD0000FEE7000005
:101C6000FEE700007047000070470000FEF7C2BEAC
:101C700070B592B006AC20463021FEF783FB0025FC
:101C800043F640000595CDE90355CDE90155009592
:101C9000C4F202000168022641F080510160006830
:101CA00000F080500090009847F200000095C4F2C8
:101CB0000000016841F480410160006800F4804048
:101CC00000900098012006904FF4803007904FF468
:101CD00080000D9008200E904FF4A870CDE90F06FB
:101CE0000720119020460C96FFF72AF810B172B623
:101CF000FEE700BF0F20CDE901064FF4A050CDE96B
:101D0000040001A805210395FEF71CFF10B172B66F
:101D1000FEE700BF12B070BD4EF68850CEF2000054
:101D2000016841F47001016070470000B0B540F6F1
:101D3000FF3E0568C4F2000E40F2004C7045C4F24C
:101D4000010C25DCB0F1804F2FD040F20043C4F2EB
:101D50000003984229D040F60003C4F200039842E1
:101D600023D041F6FF73C4F20003984228DC70458B
:101D70003ADCB0F1804F5BD040F20043C4F2000384
:101D8000984255D040F60003C4F200034EE000BF75
:101D900040F60043C4F20003984206D0604504D0E8
:101DA0000023C4F201039842DBD14B6825F0700296
:101DB00043EA020541F6FF73C4F200039842D6DD00
:101DC00043F6FF73C4F2010398421FDC42F20003A2
:101DD000C4F2000398422BD00023C4F201039842BE
:101DE00026D0604524D028E040F60043C4F200032A
:101DF00098421DD041F60003C4F20003984217D068
:101E000041F60043C4F2000310E000BF44F20003B7
:101E1000C4F2010398420BD044F60003C4F201035C
:101E2000984205D044F20043C4F20103984204D121
:101E3000CB6825F4407243EA02050A688C684B6956
:101E4000C46240F480648262644504BF096901632E
:101E5000026825F0800142F0040219430260012269
:101E600042610160B0BD0000FEE700002DE9F041D5
:101E700084B0044648F68C02C0F60C020068217952
:101E800002924FF0640802AA0423CDF80080FEF706
:101E900089FC42F62D165027C0F60D1603AD00BF83
:101EA000206821792A4604230396CDF80080FEF7A6
:101EB00079FC013FF4D104B0BDE8F081032A88BF6A
:101EC0007047DFE802F0030B070900BF6FF07F02E5
:101ED000514004E06C3902E02C3900E0403980B513
:101EE00082B021F00F02090102F10C0308328DF8D3
:101EF00004308DF8052001F10C0203688DF80620EE
:101F000001F1080201798DF807204FF0640C01AA55
:101F100018460423CDF800C0FEF744FC02B0BDE82B
:101F20008040704770B582B004463220FEF792FAC6
:101F300043F63C0620682179C0F60C06642501AA08
:101F4000042301960095FEF72DFC0520FEF782FA8A
:101F50002068217901AA042301960095FEF722FC4E
:101F60000120FEF777FA2068217901AA042301965F
:101F70000095FEF717FC0A20FEF76CFA42F62C02D9
:101F8000C0F60C0220682179019201AA0423009571
:101F9000FEF708FC0A20FEF75DFA42F62C02C8F6AE
:101FA0008C0220682179019201AA04230095FEF792
:101FB000F9FB0120FEF74EFA40F60C02C8F68C023F
:101FC00020682179019201AA04230095FEF7EAFB1B
:101FD0000120FEF73FFA40F60C02C1F61C02206811
:101FE0002179019201AA04230095FEF7DBFB022070
:101FF000FEF730FA40F60C02C6F66C022068217932
:10200000019201AA04230095FEF7CCFB0120FEF704
:1020100021FA40F60C02CCF6CC022068217901921C
:1020200001AA04230095FEF7BDFB02B070BD0000BD
:102030000A78002A08BF7047F0B583B004464E1EE8
:10204000642702AD22F00F00110100F10D020930EA
:102050008DF8090001F10D008DF808208DF80A00B7
:1020600001F10902206821798DF80B202A4604230A
:102070000097FEF797FBB2780136002AE2D103B051
:10208000BDE8F0407047000096B040F60044C4F24E
:102090000204FEF7BDFCFFF7EBFD002543F6300020
:1020A0000595CDE90355CDE901550995C4F2020026
:1020B0000168002241F080010160016845F20A08D0
:1020C00001F08001099109990995016841F0010128
:1020D0000160016801F00101099109990995016800
:1020E00041F010010160016801F0100109910999A6
:1020F0000995016841F008010160016801F00801DB
:10210000099109990995016841F00201016000688F
:1021100045F20A0100F00200099009982046FEF7F6
:1021200083FA4FF48810A4F5406901AE0127CDE988
:102130000205484631460197FEF7A0F90220CDE995
:102140000105484631460395FEF798F92046314689
:10215000CDE90187CDE90355FEF790F940F270060D
:10216000C2F20006A4F58631304640F8081F53211C
:1021700044F620621595CDE91355CDE91055079524
:10218000C0E90115C0E90325C0E90555FFF748F886
:1021900010B172B6FEE700BF4FF4805006F1080799
:1021A000129012A93846FFF783F818B172B600BF33
:1021B000FEE700BF3846FFF789FA18B172B600BFD4
:1021C000FEE700BF10A93846FEF7CCFF10B172B68B
:1021D000FEE700BF60200990002509A938460022CB
:1021E000CDE90A55CDE90C55CDE90E55FFF75EF95D
:1021F00010B172B6FEE700BF4FF40050069001A97F
:1022000038460595CDE90355CDE901550895FEF70A
:1022100083FF18B172B600BFFEE700BF3846FFF774
:1022200017F9384600210025FFF780FAB0684FF40F
:10223000FA7141634FF47A70FEF70CF9B06840F61A
:10224000C41141634FF47A70FEF704F940F2C007FD
:10225000A4F5DC30C2F2000748F2A061C0F201012F
:102260004FF4804287E823003846C7E90352C7E9A4
:102270000555C7E90755FEF7E3F918B172B600BF77
:10228000FEE700BF4E2030713046CDF80090376039
:10229000FFF748FE3046FFF7E9FD55A13046FFF74E
:1022A000C7FE304600210122FFF708FE54A1304648
:1022B000FFF7BEFE4FF47A70FEF7CCF83046FFF71A
:1022C000D5FD40F2413A40F28E4840F2DC5940F2EE
:1022D000297B40F6C41571E020464FF4804100226E
:1022E000FEF7A2F9204608210022FEF79DF92046BC
:1022F00002210022FEF798F94FF4805144A72046AE
:102300000122FEF791F93046FFF7B0FD304639461D
:10231000FFF78EFEB0684FF4FA7141636420FEF758
:1023200099F8B068C0F834A06420FEF793F8B0685C
:10233000C0F834806420FEF78DF8B068C0F834909F
:102340006420FEF787F8B068C0F834B06420FEF768
:1023500081F8B06840F6760747636420FEF77AF8A4
:10236000B06845636420FEF775F8B0684563642083
:10237000FEF770F8B06847636420FEF76BF8B0684A
:10238000C0F834B06420FEF765F8B068C0F8349047
:102390006420FEF75FF8B068C0F834806420FEF770
:1023A00059F8B068C0F834A06420FEF753F8B0685C
:1023B0004FF4FA7141636420FEF74CF80098022153
:1023C000FEF72CF9012887D120464FF480510022D6
:1023D000FEF72AF920464FF480410122FEF724F946
:1023E000204608210122FEF71FF902210DA786E7EA
:1023F00053544D333220493243204C4344000000B3
:102400004C6962726172792044656D6F0000000052
:102410004E6F205065737420446574656374656401
:102420000000000050657374204465746563746532
:1024300064000000F1EE100A4FF6FF71C0F2C031E7
:1024400020EA010040F04070E1EE100A7047000001
:102450000000000000000102030406070809000054
:10246000000001020304000088240008000000208E
:1024700010000000EC010008982400081000002063
:10248000080700000C020008010000001000000016
:082490000024F400000000002C
:040000050800018965
:00000001FF
